{
  "contractName": "Demo",
  "abi": [
    {
      "inputs": [],
      "payable": false,
      "stateMutability": "nonpayable",
      "type": "constructor"
    },
    {
      "anonymous": false,
      "inputs": [
        {
          "indexed": false,
          "internalType": "uint256",
          "name": "id",
          "type": "uint256"
        },
        {
          "indexed": false,
          "internalType": "string",
          "name": "content",
          "type": "string"
        }
      ],
      "name": "DatumCreated",
      "type": "event"
    },
    {
      "constant": true,
      "inputs": [
        {
          "internalType": "uint256",
          "name": "",
          "type": "uint256"
        }
      ],
      "name": "data",
      "outputs": [
        {
          "internalType": "uint256",
          "name": "id",
          "type": "uint256"
        },
        {
          "internalType": "string",
          "name": "content",
          "type": "string"
        }
      ],
      "payable": false,
      "stateMutability": "view",
      "type": "function"
    },
    {
      "constant": true,
      "inputs": [],
      "name": "dataCount",
      "outputs": [
        {
          "internalType": "uint256",
          "name": "",
          "type": "uint256"
        }
      ],
      "payable": false,
      "stateMutability": "view",
      "type": "function"
    },
    {
      "constant": false,
      "inputs": [
        {
          "internalType": "string",
          "name": "_content",
          "type": "string"
        }
      ],
      "name": "createDatum",
      "outputs": [],
      "payable": false,
      "stateMutability": "nonpayable",
      "type": "function"
    }
  ],
  "bytecode": "0x60806040526000805534801561001457600080fd5b506040805180820190915260028152617b7d60f01b6020820152610040906001600160e01b0361004516565b6101d0565b6000805460019081018083556040805180820182528281526020808201878152938652848152919094208451815591518051929361008b93908501929190910190610135565b509050507f0998893a5d14da7bfb00a82a3c0a42c7eb350ba99d042bae562ff5920c5efb7b600054826040518083815260200180602001828103825283818151815260200191508051906020019080838360005b838110156100f75781810151838201526020016100df565b50505050905090810190601f1680156101245780820380516001836020036101000a031916815260200191505b50935050505060405180910390a150565b828054600181600116156101000203166002900490600052602060002090601f016020900481019282601f1061017657805160ff19168380011785556101a3565b828001600101855582156101a3579182015b828111156101a3578251825591602001919060010190610188565b506101af9291506101b3565b5090565b6101cd91905b808211156101af57600081556001016101b9565b90565b610410806101df6000396000f3fe608060405234801561001057600080fd5b50600436106100415760003560e01c80635da40c47146100465780637703b39714610060578063f0ba844014610108575b600080fd5b61004e6101a4565b60408051918252519081900360200190f35b6101066004803603602081101561007657600080fd5b81019060208101813564010000000081111561009157600080fd5b8201836020820111156100a357600080fd5b803590602001918460018302840111640100000000831117156100c557600080fd5b91908080601f0160208091040260200160405190810160405280939291908181526020018383808284376000920191909152509295506101aa945050505050565b005b6101256004803603602081101561011e57600080fd5b503561029a565b6040518083815260200180602001828103825283818151815260200191508051906020019080838360005b83811015610168578181015183820152602001610150565b50505050905090810190601f1680156101955780820380516001836020036101000a031916815260200191505b50935050505060405180910390f35b60005481565b600080546001908101808355604080518082018252828152602080820187815293865284815291909420845181559151805192936101f093908501929190910190610340565b509050507f0998893a5d14da7bfb00a82a3c0a42c7eb350ba99d042bae562ff5920c5efb7b600054826040518083815260200180602001828103825283818151815260200191508051906020019080838360005b8381101561025c578181015183820152602001610244565b50505050905090810190601f1680156102895780820380516001836020036101000a031916815260200191505b50935050505060405180910390a150565b600160208181526000928352604092839020805481840180548651600296821615610100026000190190911695909504601f810185900485028601850190965285855290949193929091908301828280156103365780601f1061030b57610100808354040283529160200191610336565b820191906000526020600020905b81548152906001019060200180831161031957829003601f168201915b5050505050905082565b828054600181600116156101000203166002900490600052602060002090601f016020900481019282601f1061038157805160ff19168380011785556103ae565b828001600101855582156103ae579182015b828111156103ae578251825591602001919060010190610393565b506103ba9291506103be565b5090565b6103d891905b808211156103ba57600081556001016103c4565b9056fea265627a7a7231582048a713cc1b657e612a695ca8c18b00b7ca11d0ee9db9e6e47211a2eafdab5d1d64736f6c63430005100032",
  "source": "pragma solidity ^0.5.0;\n\ncontract Demo {\n  uint public dataCount = 0;\n  mapping(uint => Datum) public data;\n\n  struct Datum {\n    uint id;\n    string content;\n  }\n\n  event DatumCreated(\n    uint id,\n    string content\n  );\n\n  constructor() public {\n    createDatum(\"{}\");\n  }\n\n  function createDatum(string memory _content) public {\n    dataCount ++;\n    data[dataCount] = Datum(dataCount, _content);\n    emit DatumCreated(dataCount, _content);\n  }\n\n  \n}\n\n",
  "sourcePath": "C:\\Users\\luong\\Documents\\GitHub\\demoBlockchain\\contracts\\Demo.sol",
  "compiler": {
    "name": "solc",
    "version": "0.5.16+commit.9c3226ce.Emscripten.clang"
  },
  "schemaVersion": "3.4.4",
  "updatedAt": "2022-04-22T02:46:28.415Z",
  "networkType": "ethereum",
  "devdoc": {
    "methods": {}
  },
  "userdoc": {
    "methods": {}
  }
}