{
  "contractName": "Demo",
  "abi": [
    {
      "constant": true,
      "inputs": [],
      "name": "dataCount",
      "outputs": [
        {
          "name": "",
          "type": "uint256"
        }
      ],
      "payable": false,
      "stateMutability": "view",
      "type": "function",
      "signature": "0x5da40c47"
    },
    {
      "constant": true,
      "inputs": [
        {
          "name": "",
          "type": "uint256"
        }
      ],
      "name": "data",
      "outputs": [
        {
          "name": "id",
          "type": "uint256"
        },
        {
          "name": "content",
          "type": "string"
        }
      ],
      "payable": false,
      "stateMutability": "view",
      "type": "function",
      "signature": "0xf0ba8440"
    },
    {
      "inputs": [],
      "payable": false,
      "stateMutability": "nonpayable",
      "type": "constructor",
      "signature": "constructor"
    },
    {
      "anonymous": false,
      "inputs": [
        {
          "indexed": false,
          "name": "id",
          "type": "uint256"
        },
        {
          "indexed": false,
          "name": "content",
          "type": "string"
        }
      ],
      "name": "DatumCreated",
      "type": "event",
      "signature": "0x0998893a5d14da7bfb00a82a3c0a42c7eb350ba99d042bae562ff5920c5efb7b"
    },
    {
      "constant": false,
      "inputs": [
        {
          "name": "_content",
          "type": "string"
        }
      ],
      "name": "createDatum",
      "outputs": [],
      "payable": false,
      "stateMutability": "nonpayable",
      "type": "function",
      "signature": "0x7703b397"
    }
  ],
  "bytecode": "0x60806040526000805534801561001457600080fd5b5060408051808201909152600d81527f496e697469616c20646174756d00000000000000000000000000000000000000602082015261005b90640100000000610060810204565b6101eb565b600080546001908101808355604080518082018252828152602080820187815293865284815291909420845181559151805192936100a693908501929190910190610150565b509050507f0998893a5d14da7bfb00a82a3c0a42c7eb350ba99d042bae562ff5920c5efb7b600054826040518083815260200180602001828103825283818151815260200191508051906020019080838360005b838110156101125781810151838201526020016100fa565b50505050905090810190601f16801561013f5780820380516001836020036101000a031916815260200191505b50935050505060405180910390a150565b828054600181600116156101000203166002900490600052602060002090601f016020900481019282601f1061019157805160ff19168380011785556101be565b828001600101855582156101be579182015b828111156101be5782518255916020019190600101906101a3565b506101ca9291506101ce565b5090565b6101e891905b808211156101ca57600081556001016101d4565b90565b610443806101fa6000396000f3fe6080604052600436106100565763ffffffff7c01000000000000000000000000000000000000000000000000000000006000350416635da40c47811461005b5780637703b39714610082578063f0ba844014610137575b600080fd5b34801561006757600080fd5b506100706101e0565b60408051918252519081900360200190f35b34801561008e57600080fd5b50610135600480360360208110156100a557600080fd5b8101906020810181356401000000008111156100c057600080fd5b8201836020820111156100d257600080fd5b803590602001918460018302840111640100000000831117156100f457600080fd5b91908080601f0160208091040260200160405190810160405280939291908181526020018383808284376000920191909152509295506101e6945050505050565b005b34801561014357600080fd5b506101616004803603602081101561015a57600080fd5b50356102d6565b6040518083815260200180602001828103825283818151815260200191508051906020019080838360005b838110156101a457818101518382015260200161018c565b50505050905090810190601f1680156101d15780820380516001836020036101000a031916815260200191505b50935050505060405180910390f35b60005481565b6000805460019081018083556040805180820182528281526020808201878152938652848152919094208451815591518051929361022c9390850192919091019061037c565b509050507f0998893a5d14da7bfb00a82a3c0a42c7eb350ba99d042bae562ff5920c5efb7b600054826040518083815260200180602001828103825283818151815260200191508051906020019080838360005b83811015610298578181015183820152602001610280565b50505050905090810190601f1680156102c55780820380516001836020036101000a031916815260200191505b50935050505060405180910390a150565b600160208181526000928352604092839020805481840180548651600296821615610100026000190190911695909504601f810185900485028601850190965285855290949193929091908301828280156103725780601f1061034757610100808354040283529160200191610372565b820191906000526020600020905b81548152906001019060200180831161035557829003601f168201915b5050505050905082565b828054600181600116156101000203166002900490600052602060002090601f016020900481019282601f106103bd57805160ff19168380011785556103ea565b828001600101855582156103ea579182015b828111156103ea5782518255916020019190600101906103cf565b506103f69291506103fa565b5090565b61041491905b808211156103f65760008155600101610400565b9056fea165627a7a723058203e7d62b9fd073c53fd91042ccdb3ca902ce349dd11cb2fec030553e89744b6d40029",
  "source": "pragma solidity ^0.5.0;\n\ncontract Demo {\n  uint public dataCount = 0;\n  mapping(uint => Datum) public data;\n\n  struct Datum {\n    uint id;\n    string content;\n  }\n\n  event DatumCreated(\n    uint id,\n    string content\n  );\n\n  constructor() public {\n    createDatum(\"Initial datum\");\n  }\n\n  function createDatum(string memory _content) public {\n    dataCount ++;\n    data[dataCount] = Datum(dataCount, _content);\n    emit DatumCreated(dataCount, _content);\n  }\n\n  \n}\n\n",
  "sourcePath": "/home/khaihuynh/Data/DHBK/HK8/KSTN/Software Engineering/demoBlockchain/contracts/Demo.sol",
  "compiler": {
    "name": "solc",
    "version": "0.5.0+commit.1d4f565a.Emscripten.clang"
  },
  "schemaVersion": "3.0.1",
  "updatedAt": "2022-04-20T18:08:32.819Z",
  "devdoc": {
    "methods": {}
  },
  "userdoc": {
    "methods": {}
  }
}